{
  "contractName": "Greeter",
  "abi": [
    {
      "inputs": [
        {
          "name": "_greeting",
          "type": "string"
        }
      ],
      "payable": false,
      "stateMutability": "nonpayable",
      "type": "constructor"
    },
    {
      "constant": true,
      "inputs": [],
      "name": "greet",
      "outputs": [
        {
          "name": "",
          "type": "string"
        }
      ],
      "payable": false,
      "stateMutability": "view",
      "type": "function"
    }
  ],
  "bytecode": "0x608060405234801561001057600080fd5b506040516102a83803806102a8833981018060405281019080805182019291905050508060009080519060200190610049929190610050565b50506100f5565b828054600181600116156101000203166002900490600052602060002090601f016020900481019282601f1061009157805160ff19168380011785556100bf565b828001600101855582156100bf579182015b828111156100be5782518255916020019190600101906100a3565b5b5090506100cc91906100d0565b5090565b6100f291905b808211156100ee5760008160009055506001016100d6565b5090565b90565b6101a4806101046000396000f300608060405260043610610041576000357c0100000000000000000000000000000000000000000000000000000000900463ffffffff168063cfae321714610046575b600080fd5b34801561005257600080fd5b5061005b6100d6565b6040518080602001828103825283818151815260200191508051906020019080838360005b8381101561009b578082015181840152602081019050610080565b50505050905090810190601f1680156100c85780820380516001836020036101000a031916815260200191505b509250505060405180910390f35b606060008054600181600116156101000203166002900480601f01602080910402602001604051908101604052809291908181526020018280546001816001161561010002031660029004801561016e5780601f106101435761010080835404028352916020019161016e565b820191906000526020600020905b81548152906001019060200180831161015157829003601f168201915b50505050509050905600a165627a7a72305820c610c10bef8f8c4088b0bdcc1e788cd0de9be6b11ca930212d5d62da3cbd7a8e0029",
  "source": "pragma solidity ^0.4.15;\n\n/** @title Greeter */\ncontract Greeter {\n\t/* Global variable that our greeter will output when poked */\n\tstring greeting;\n\n\t/** @dev Contract constructor that sets the global `greeting` variable\n\t  * @param _greeting A STRING value to set the global `greeting` to\n\t  */\n\tfunction Greeter(string _greeting) {\n\t\tgreeting = _greeting;\n\t}\n\n\t/** Greet function\n\t  * @return greeting The STRING value stored in the global `greeting` variable\n\t  */\n\tfunction greet() constant returns (string) {\n\t\treturn greeting;\n\t}\n}\n",
  "sourcePath": "/Users/NichananK/berkeley-blockchain-dev/ex3/contracts/Greeter.sol",
  "compiler": {
    "name": "solc",
    "version": "0.4.24+commit.e67f0147.Emscripten.clang"
  },
  "schemaVersion": "2.0.1",
  "updatedAt": "2018-07-03T17:05:23.748Z"
}